:100000000C9472000C9493000C9493000C94930045
:100010000C9493000C9493000C9493000C94930014
:100020000C9493000C9493000C9493000C94930004
:100030000C9493000C9493000C9493000C949300F4
:100040000C9493000C9493000C9493000C949300E4
:100050000C9493000C9493000C9493000C949300D4
:100060000C9493000C9414060C9493000C9493003D
:100070000C9493000C9493000C9493000C949300B4
:100080000C9493000C9493000C9493000C949300A4
:100090000C9493000C9493000C9493000C94930094
:1000A0000C9493000C9493000C9493000C94930084
:1000B0000C9493000C9493000C9493000C94930074
:1000C0000C9493000C9493000C9493000C94930064
:1000D0000C9493000C9493000C9493000C94930054
:1000E0000C94930011241FBECFEFD1E2DEBFCDBF31
:1000F00000E00CBF13E0A0E0B2E0E4E2FAE100E0CF
:100100000BBF02C007900D92A232B107D9F713E0DE
:10011000A2E2B3E001C01D92A039B107E1F70E944D
:1001200076060C94110D0C94000087B1876F87B987
:1001300088B1807888B90895EAEFF0E0CF0101979F
:10014000F1F74098419820E328B9429A82EE94E072
:10015000DC011197F1F74298DF011197F1F7409810
:10016000419828B9429ADC011197F1F74298DF01D2
:100170001197F1F74098419828B9429ADC011197FC
:10018000F1F742983197F1F74098419820E228B969
:10019000429A0197F1F74298089598B19F7098B9E3
:1001A00028B1982F907F922B98B940984198429A05
:1001B000E2EEF4E0DF011197F1F7429898B19F70F9
:1001C00098B998B18295807F982B98B940984198BA
:1001D000429A3197F1F7429808958AEF90E001979B
:1001E000F1F788E20E94CD0081E00E94CD0086E018
:1001F0000E94CD008EE00E94CD0080E80E94CD00DC
:10020000089598B19F7098B928B1982F907F922B3C
:1002100098B9409A4198429AE2EEF4E0DF011197D2
:10022000F1F7429898B19F7098B998B18295807F04
:10023000982B98B9409A4198429A3197F1F7429891
:10024000089580E80E94CD000895CF93DF93EC01DC
:1002500003C00E940101219688818823D1F7DF9194
:10026000CF910895823069F0833018F48130A9F479
:1002700005C0833049F0843081F40BC0862F81584B
:1002800005C0862F815402C0862F8D560E94CD0056
:100290000895862F8D520E94CD0008950F931F93CD
:1002A000CF93DF938A01E901882311F0662319F4C3
:1002B0000E94210102C00E943201C530D10571F4B3
:1002C000C80160E177E20E94B30CCB01C096909325
:1002D0004503809344030E94010105C0C430D10549
:1002E00011F080E016C0C80168EE73E00E94B30C04
:1002F000CB0170934803609347036AE070E00E946B
:10030000B30CC09690937A03809379030E94010105
:1003100081E0C330D10511F08130B1F4C80164E649
:1003200070E00E94B30CCB017093480360934703C5
:100330006AE070E00E94B30CC096909376038093BD
:1003400075030E94010181E0C230D10511F08130B6
:10035000B1F4C8016AE070E00E94B30CCB01709365
:100360004803609347036AE070E00E94B30CC096B4
:1003700090935E0380935D030E94010181E0C13090
:10038000D10511F0813061F4C8016AE070E00E948B
:10039000B30CC09690937803809377030E94010179
:1003A00026971CF085E40E940101DF91CF911F91F7
:1003B0000F9108958093280160932A01089586E0A3
:1003C00082B908958AE082B9089585E082B90895D6
:1003D00089E082B908953B9A43988FEF8DB98EB921
:1003E000089581B18F6081B982B1807F82B9EAE0DE
:1003F000F1E0808188618083EBE0F1E080818861B9
:1004000080830895E1E2F1E0108281EA8093200187
:100410008BE080830895E1ECF0E010821092C00040
:1004200086E08093C20087E48093C4001092C500E8
:1004300088E98083089520E030E0F901E75BFC4F14
:1004400088E790E091838083F901E05AFC4F918323
:100450008083F901E558FC4F918380832E5F3F4FE5
:100460002431310551F780EB94E09093350380936C
:100470003403909339038093380390933B03809324
:100480003A0308950E94F1010E94EB0187B1876F42
:1004900087B988B1807888B9E1E2F1E0108281EA19
:1004A000809320018BE080830E941B020895F894C2
:1004B0000E9442020E940B02789408958F929F92AC
:1004C000AF92BF92CF92DF92EF92FF920F931F9362
:1004D0005C0180903E0390903F037401EE0CFF1C82
:1004E00089E493E0E80EF91ED7018D919C91950166
:1004F000281B390B8091340390913503820F931F91
:10050000909335038093340380914003909141038D
:100510008C01000F111F005A1C4F2091380330919D
:100520003903D801ED91FC912E1B3F0B260F371F8D
:100530003093390320933803C0904203D090430393
:10054000D601AA0FBB1FA558BC4F20913A0330918A
:100550003B03ED91FC9111972E1B3F0B240F351F90
:1005600030933B0320933A03F701B182A082F80154
:10057000718360834D935C9301966AE070E00E9402
:10058000C70C9093410380934003C40101966AE035
:1005900070E00E94C70C90933F0380933E03C60116
:1005A00001966AE070E00E94C70C90934303809329
:1005B00042031F910F91FF90EF90DF90CF90BF907B
:1005C000AF909F908F9008956F927F928F929F929D
:1005D000AF92BF92CF92DF92EF92FF920F931F9351
:1005E000CF93DF93C7E8D3E0A4E06A2EA2E07A2E8F
:1005F000F0E08F2EF2E09F2E88819981863A910556
:100600000CF417C160E070E080916C0390916D0371
:100610008C39910514F061E070E08B0180916E03DC
:1006200090916F038C39910514F00F5F1F4F8091EB
:100630007003909171038C39910514F00F5F1F4F77
:1006400080917203909173038C39910514F00F5FC0
:100650001F4F033011050CF45BC0C4010E9425013B
:1006600088EC8093280180932A018AE082B920E1F6
:1006700037E289E190E00197F1F721503040C9F766
:1006800088EC8093280180932A0186E082B984EF68
:1006900091E0089FB001099F700D189F700D112403
:1006A000882777FD8095982F0E940F0A5B016C01C7
:1006B00020E030E04AE753E40E946E087B018C01A1
:1006C00020E030E040E85FE30E94D90987FD7DC06B
:1006D00020E03FEF4FE757E4C801B7010E946D09E2
:1006E00018160CF094C020E030E040E251E4C6015E
:1006F000B5010E946E080E94A40606C089E190E040
:100700000197F1F76150704061157105B9F786C026
:1007100040E050E080915503909156038C3991054B
:1007200014F041E050E08A01809157039091580302
:100730008C39910514F00F5F1F4F809159039091F0
:100740005A038C39910514F00F5F1F4F80915B03A2
:1007500090915C038C39910514F00F5F1F4F22E0DC
:1007600030E0A80161E082E00E944E0103301105F3
:100770000CF45FC0C3010E94250188EC809328011E
:1007800080932A0186E082B984EF91E0089FB0014E
:10079000099F700D189F700D1124882777FD809593
:1007A000982F0E940F0A5B016C0120E030E04AE7BD
:1007B00053E40E946E087B018C0120E030E040E8A9
:1007C0005FE30E94D90988231CF481E090E024C0F3
:1007D00020E03FEF4FE757E4C801B7010E946D09E1
:1007E0001816ACF420E030E040E251E4C601B50157
:1007F0000E946E080E94A40606C089E190E001975D
:10080000F1F76150704061157105B9F707C0C80173
:10081000B7010E94A406CB010197F1F712B810921C
:100820002F0310922E0310923103109230030E9476
:100830001B02229683E0CF38D80709F0DDCEDF9186
:10084000CF911F910F91FF90EF90DF90CF90BF90CD
:10085000AF909F908F907F906F9008958091340318
:10086000909135036AE070E00E94C70C9B01709381
:1008700037036093360380913803909139036AE01F
:1008800070E00E94C70CFB0170933D0360933C0332
:1008900080913A0390913B036AE070E00E94C70C9C
:1008A000643671051CF480E090E00895223931052A
:1008B0007CF081E090E090932D0380932C03203A0C
:1008C000310594F02F3A3105BCF482E090E014C079
:1008D0002E363105B4F482E090E090932D0380939E
:1008E0002C03253631051CF083E090E005C02B3544
:1008F000310514F481E090E0909327038093260360
:1009000004C010922D0310922C03E936F1051CF45B
:1009100082E090E005C0E239F1054CF081E090E022
:1009200090932B0380932A0385E090E00895109222
:100930002B0310922A0385E090E008958091220312
:100940009091230301969093230380932203609157
:100950002603709127030E94B30C892BB1F41092E7
:1009600023031092220380912E0390912F030A9665
:1009700090932F0380932E03809130039091310345
:100980000A96909331038093300380912E039091C7
:100990002F038F3F910534F08EEF90E090932F035B
:1009A00080932E0380913003909131038F3F910506
:1009B00034F08EEF90E09093310380933003809178
:1009C000300390912E039093280180932A0186E0B2
:1009D00082B9089580912403909125030196909304
:1009E00025038093240360912603709127030E94BE
:1009F000B30C892BB1F480912E0390912F030A97A9
:100A000090932F0380932E038091300390913103B4
:100A10000A9790933103809330031092250310922C
:100A2000240320912E0330912F031216130634F164
:100A3000409130035091310314161506FCF02150FB
:100A40003F4F34F481E09FEF90932F0380932E0368
:100A500041505F4F34F481E09FEF909331038093D6
:100A6000300389E082B990913003919580912E03F3
:100A700081958093280190932A01089586E082B998
:100A8000809130032093280180932A01089512B8A1
:100A900010922F0310922E03109231031092300304
:100AA000089581E090E090932D0380932C03809132
:100AB0002E0390912F034E9790932F0380932E0334
:100AC00097FF04C010922F0310922E030E949E04E1
:100AD000089581E090E090932D0380932C03809102
:100AE0003003909131034E979093310380933003FC
:100AF00097FF04C010923103109230030E949E04AD
:100B0000089582E090E090932D0380932C038091D0
:100B10002E0390912F034E9690932F0380932E03D4
:100B20001816190624F410922F0310922E030E9417
:100B3000EA04089582E090E090932D0380932C03C3
:100B400080913003909131034E96909331038093BE
:100B500030031816190624F4109231031092300352
:100B60000E94EA0408950E942E04892B51F412B8C1
:100B700010922F0310922E03109231031092300323
:100B8000089580912C0390912D038130910589F473
:100B900080912A0390912B030097F9F48091300300
:100BA0009091310390932F0380932E030E949E0413
:100BB00008958230910539F580912A0390912B0395
:100BC0000097B1F4809130039091310390932F03FB
:100BD00080932E030E94EA0408958130910519F450
:100BE0000E94510508950297F1F40E946905089545
:100BF0008130910519F40E9481050895029799F4B6
:100C00000E949A050895892B71F480912A0390918E
:100C10002B038230910519F485E082B9089501977C
:100C200011F48AE082B908951F920F920FB60F92C5
:100C300011242F933F934F935F936F937F938F93E1
:100C40009F93AF93BF93EF93FF932091C6002093A0
:100C50005F032093C6008091280390912903009799
:100C600019F420938F030BC08130910519F4209360
:100C7000460305C08230910511F420937403019658
:100C800063E070E00E94B30C9093290380932803E3
:100C9000892BD9F44091740350E06091460370E0D1
:100CA00080918F0390E00E945E02809117029091E4
:100CB0001802029711F40E94B305809117029091D7
:100CC0001802019711F40E94E402FF91EF91BF9185
:100CD000AF919F918F917F916F915F914F913F91D4
:100CE0002F910F900FBE0F901F9018950F931F9389
:100CF000CF93DF930E9457020E949C000E94ED0058
:100D00000FE012E0C8E0D2E06799FECF80911702B1
:100D100090911802019751F461E081E00E94320144
:100D2000CE010E94250182E090E009C061E081E0EF
:100D30000E943201C8010E94250181E090E0909359
:100D4000180280931702E0CFEF92FF920F931F9348
:100D50007B018C0120E030E040E05FE40E94A309C9
:100D600088237CF020E030E040E05FE4C801B70178
:100D70000E9410080E946D0A6050704080409048A8
:100D800004C0C801B7010E946D0A1F910F91FF9026
:100D9000EF900895A0E0B0E0E0EDF6E00C94DC0CFC
:100DA0002C015B01FA01DC019C91923008F432C104
:100DB000EB018881823008F42CC1943071F48430C6
:100DC00009F028C1F20191818981981709F422C1A3
:100DD00019E1412E12E0512E1DC1843009F419C1D0
:100DE0008230A9F4923009F015C1CA01A20128E0AD
:100DF000DA010D90AD01EC010992CE012150C1F74D
:100E0000E5018981E20199818923818300C19230C2
:100E100009F4FFC0E201CA80DB80EB018A819B817B
:100E2000E2012C813D814E815F81EB01EC80FD80F0
:100E30000E811F81B601681B790BDB0177FF03C0B0
:100E4000709561957F4F603271050CF05DC01A1688
:100E50001B065CF566247724430181E090E0A0E066
:100E6000B0E0062E04C0880F991FAA1FBB1F0A946A
:100E7000D2F70197A109B1098E219F21A023B123A7
:100E80000097A105B10529F0B1E06B2E712C812CE2
:100E9000912C04C016950795F794E7946A95D2F7BC
:100EA000E628F728082919293BC0AB2BC9F1C60E43
:100EB000D71E66247724430181E090E0A0E0B0E0F3
:100EC000062E04C0880F991FAA1FBB1F0A94D2F7D1
:100ED0000197A109B10982239323A423B523009785
:100EE000A105B10529F0A1E06A2E712C812C912C6D
:100EF00004C056954795379527956A95D2F72629C8
:100F00003729482959290CC08C159D0534F06C01EE
:100F100020E030E040E050E003C0EE24FF248701F1
:100F2000E2019981E5018981981709F443C0992369
:100F300039F0E21AF30A040B150BA801970104C05B
:100F40002E193F09400B510B57FD08C01182D38267
:100F5000C28224833583468357831DC081E0818309
:100F6000D382C28288279927DC01821B930BA40BB2
:100F7000B50B84839583A683B7830DC0220F331FDF
:100F8000441F551F24833583468357838281938171
:100F90000197938382832481358146815781DA01C9
:100FA000C9010197A109B1098F5F9F4FAF4FBF439F
:100FB00028F30BC09183D382C2822E0D3F1D401FA8
:100FC000511F248335834683578383E080832481A4
:100FD0003581468157815523D4F4C901AA2797FD4D
:100FE000A095BA2F81709070A070B07056954795FB
:100FF00037952795822B932BA42BB52B8483958330
:10100000A683B783828193810196938382832F0184
:1010100001C02501C201E0E1CDB7DEB70C94F80CA8
:10102000A0E2B0E0E6E1F8E00C94E60C69837A8394
:101030008B839C832D833E834F83588709E0E02E6A
:10104000F12CEC0EFD1EB701CE0101960E94ED0BB6
:101050008E010F5E1F4FB801CE0105960E94ED0B69
:101060008A8991E089278A8BAE01475E5F4FB8017C
:10107000C7010E94CA060E940D0BE6E0A0960C94E0
:10108000020DA0E2B0E0E7E4F8E00C94E60C69831E
:101090007A838B839C832D833E834F83588789E09B
:1010A000E82EF12CEC0EFD1EB701CE0101960E9438
:1010B000ED0B8E010F5E1F4FB801CE0105960E9409
:1010C000ED0BAE01475E5F4FB801C7010E94CA0633
:1010D0000E940D0BE6E0A0960C94020DA0E2B0E099
:1010E000E4E7F8E00C94DC0C69837A838B839C83BF
:1010F0002D833E834F83588799E0E92EF12CEC0E27
:10110000FD1EB701CE0101960E94ED0B8E010F5E10
:101110001F4FB801CE0105960E94ED0B99859230C4
:1011200088F089898230C0F0943019F4823029F037
:1011300009C0843029F4923079F469E172E0C6C0C4
:10114000923041F420E09A858A89981321E02A8719
:10115000B701BCC0823041F420E09A858A89981397
:1011600021E02A8BB801B2C0CD84DE84EF84F888F8
:101170000D891E892F89388D88249924540140E0D7
:1011800050E060E070E0442455243201E0E0F0E0FB
:10119000C60181709070892BD9F0800E911EA21E1D
:1011A000B31EDB01CA01840D951DA61DB71D40E0CD
:1011B00050E060E070E080169106A206B30620F4CD
:1011C00041E050E060E070E0480F591F6A1F7B1F4C
:1011D000440C551C661C771C37FF08C081E090E06A
:1011E000A0E0B0E0482A592A6A2A7B2A3196E032E8
:1011F000F10549F0000F111F221F331FF694E794E9
:10120000D794C794C5CF8B899C892B853C85820F49
:10121000931F02969C8F8B8F1A8E9A858A899817B6
:1012200011F081E08A8F2B8D3C8D17C0CA0181702F
:101230009070892B61F0B694A7949794879480E07E
:1012400090E0A0E0B0E8882A992AAA2ABB2A7695DD
:101250006795579547952F5F3F4F77FDE7CFC901BA
:101260000BC0440F551F661F771FB7FC4160880CE9
:10127000991CAA1CBB1C01974030A0E05A07A0E0B3
:101280006A07A0E47A0768F39C8F8B8FDB01CA01A1
:101290008F779070A070B07080349105A105B10572
:1012A00061F447FD0AC081149104A104B10429F03E
:1012B000405C5F4F6F4F7F4F40784D8F5E8F6F8FD9
:1012C00078A383E0898FBE01675E7F4FCB010E94C8
:1012D0000D0BE0E1A0960C94F80CA8E1B0E0E3E778
:1012E000F9E00C94E60C69837A838B839C832D83CD
:1012F0003E834F83588789E0E82EF12CEC0EFD1ECB
:10130000B701CE0101960E94ED0B8E010F5E1F4FBB
:10131000B801CE0105960E94ED0B8985823060F000
:101320008989823048F0B801C7010E945D0C282FDE
:10133000332727FD309502C02FEF3FEFC901E6E0CC
:1013400068960C94020DA8E1B0E0E9EAF9E00C948B
:10135000E60C69837A838B839C832D833E834F8342
:10136000588789E0E82EF12CEC0EFD1EB701CE0166
:1013700001960E94ED0B8E010F5E1F4FB801CE014A
:1013800005960E94ED0B8985823060F08989823054
:1013900048F0B801C7010E945D0C282F332727FDB4
:1013A000309502C02FEF3FEFC901E6E068960C943C
:1013B000020DA8E1B0E0EFEDF9E00C94E60C6983D2
:1013C0007A838B839C832D833E834F83588789E068
:1013D000E82EF12CEC0EFD1EB701CE0101960E9405
:1013E000ED0B8E010F5E1F4FB801CE0105960E94D6
:1013F000ED0B8985823060F08989823048F0B80130
:10140000C7010E945D0C282F332727FD309502C0AD
:1014100021E030E0C901E6E068960C94020DA8E0F6
:10142000B0E0E5E1FAE00C94E30C9B01AC0183E051
:101430008983DA01C9018827B7FD83959927AA27EF
:10144000BB27B82E211531054105510519F482E05D
:1014500089833AC08823A9F0203080E0380780E0F3
:10146000480780E8580729F460E070E080E09FECCE
:1014700030C0EE24FF248701E21AF30A040B150B97
:1014800002C079018A018EE1C82ED12CDC82CB8288
:10149000ED82FE820F831887C801B7010E94C00A3F
:1014A00001971816190684F4082E04C0EE0CFF1CD0
:1014B000001F111F0A94D2F7ED82FE820F83188756
:1014C000C81AD90ADC82CB82BA82CE0101960E9468
:1014D0000D0BE9E028960C94FF0CACE0B0E0E3E7DC
:1014E000FAE00C94EA0C69837A838B839C83BE01B7
:1014F0006B5F7F4FCE0101960E94ED0B8D81823094
:10150000A9F1823098F1843021F48E81882359F436
:101510000FC02F81388537FD29C06E812F313105ED
:1015200064F0662329F020E030E040E050E822C07B
:101530002FEF3FEF4FEF5FE71DC08EE190E0821B82
:10154000930B29853A854B855C8504C05695479554
:10155000379527958A95D2F7662361F05095409587
:10156000309521953F4F4F4F5F4F04C020E030E052
:1015700040E050E0CA01B901E2E02C960C94060D5F
:10158000EF92FF920F931F939B01AC01203080E0FC
:10159000380781E0480780E0580780F42F3F310585
:1015A0004105510509F020F4EE24FF24870119C0FC
:1015B00068E0E62EF12C012D112D13C0203080E0C3
:1015C000380780E0480781E0580730F490E1E92EC1
:1015D000F12C012D112D05C088E1E82EF12C012DF3
:1015E000112D80E290E0A0E0B0E08E199F09A00BE1
:1015F000B10B04C05695479537952795EA94D2F7D5
:10160000F901EF5DFD4F2081821B9109A109B1090C
:101610001F910F91FF90EF9008959F92AF92BF920C
:10162000CF92DF92EF92FF920F931F93EE24FF244D
:101630008701FC0124813581468157819180808119
:10164000823010F44061A2C0843009F49BC0823023
:1016500029F420E030E040E050E005C021153105DC
:101660004105510519F4E0E0F0E092C082819381D8
:101670006FEF823896070CF05AC062E87FEF681B64
:10168000790B6A3171052CF020E030E040E050E049
:101690002AC0AA24BB24650181E090E0A0E0B0E06C
:1016A000062E04C0880F991FAA1FBB1F0A94D2F7E9
:1016B0000197A109B10982239323A423B52300979D
:1016C000A105B10529F071E0A72EB12CC12CD12CB8
:1016D00004C056954795379527956A95D2F72A29DC
:1016E0003B294C295D29DA01C9018F779070A070E0
:1016F000B07080349105A105B10539F427FF09C008
:10170000205C3F4F4F4F5F4F04C0215C3F4F4F4F16
:101710005F4F80E090E0203060E0360760E04607F1
:1017200060E4560710F081E090E0FC0123C08038AF
:10173000910544F5FC01E158FF4FDA01C9018F77AB
:101740009070A070B07080349105A105B10539F496
:1017500027FF09C0205C3F4F4F4F5F4F04C0215C03
:101760003F4F4F4F5F4F57FF05C0569547953795F1
:101770002795319687E056954795379527958A9511
:10178000D1F706C020E030E040E050E0EFEFF0E0BD
:10179000E22EF32E942F9F77802F8078892B9E2F17
:1017A0009795992797958F77082F092B9E2F9695B8
:1017B000812F8078892B9794992497948F77182F6D
:1017C0001929C801B7011F910F91FF90EF90DF9089
:1017D000CF90BF90AF909F900895CF93DF93FC017F
:1017E000DB01208131819281492F4F7750E0991F91
:1017F0009927991F8381E82FEE0FE92B6E2F70E058
:10180000881F8827881FED018983EE2371F5211534
:1018100031054105510511F482E02FC06E5770402B
:10182000FD017383628367E0220F331F441F551F3E
:101830006A95D1F783E08C930AC0220F331F441FAF
:10184000551FED018A819B8101979B838A832030FC
:10185000E0E03E07E0E04E07E0E45E0770F3ED01F4
:101860002C833D834E835F8325C0EF3F79F42115A0
:1018700031054105510519F484E08C931BC044FFE8
:1018800003C081E08C9311C01C920FC06F57704051
:10189000ED017B836A8383E08C9387E0220F331F03
:1018A000441F551F8A95D1F75064FD012483358369
:1018B00046835783DF91CF910895CF93DF93DC0167
:1018C000FB019C91923008F446C08081823008F47C
:1018D00042C0943049F4ED016981843079F5818109
:1018E00090E0861B91093CC0843021F0923031F4A5
:1018F0008230A1F18181882371F52AC0ED016981CF
:101900008230E1F081816817C9F4ED012A813B81C1
:1019100082819381821793078CF028173907B4F0DE
:10192000ED018C819D81AE81BF812481358146810D
:101930005781281739074A075B0718F4662341F4D3
:101940000AC082179307A407B50740F4662319F469
:101950008FEF9FEF05C081E090E002C080E090E053
:10196000DF91CF910895AA1BBB1B51E107C0AA1FAD
:10197000BB1FA617B70710F0A61BB70B881F991F30
:101980005A95A9F780959095BC01CD01089597FBD4
:10199000092E07260AD077FD04D0E5DF06D0002007
:1019A0001AF4709561957F4F0895F6F7909581959B
:1019B0009F4F08952F923F924F925F926F927F9226
:1019C0008F929F92AF92BF92CF92DF92EF92FF924F
:1019D0000F931F93CF93DF93CDB7DEB7CA1BDB0BFB
:1019E0000FB6F894DEBF0FBECDBF19942A88398890
:1019F00048885F846E847D848C849B84AA84B984A7
:101A0000C884DF80EE80FD800C811B81AA81B981B2
:101A1000CE0FD11D0FB6F894DEBF0FBECDBFED01C6
:041A20000895FFCF57
:101A240047522000474C200053746174696300449A
:101A3400796E616D6963000200000000000000001F
:101A44000000010202030303030404040404040465
:101A54000405050505050505050505050505050533
:101A64000506060606060606060606060606060613
:101A74000606060606060606060606060606060602
:101A840006070707070707070707070707070707E3
:101A940007070707070707070707070707070707D2
:101AA40007070707070707070707070707070707C2
:101AB40007070707070707070707070707070707B2
:101AC4000708080808080808080808080808080893
:101AD4000808080808080808080808080808080882
:101AE4000808080808080808080808080808080872
:101AF4000808080808080808080808080808080862
:101B04000808080808080808080808080808080851
:101B14000808080808080808080808080808080841
:101B24000808080808080808080808080808080831
:101B34000808080808080808080808080808080821
:021B4400080097
:00000001FF
